{"abi":[{"type":"constructor","inputs":[{"name":"manager","type":"address","internalType":"contract IPositionManager"},{"name":"angstrom","type":"address","internalType":"address"}],"stateMutability":"nonpayable"},{"type":"function","name":"getPositions","inputs":[{"name":"owner","type":"address","internalType":"address"},{"name":"tokenId","type":"uint256","internalType":"uint256"},{"name":"lastTokenId","type":"uint256","internalType":"uint256"},{"name":"maxResults","type":"uint256","internalType":"uint256"}],"outputs":[{"name":"","type":"uint256","internalType":"uint256"},{"name":"","type":"uint256","internalType":"uint256"},{"name":"","type":"tuple[]","internalType":"struct Position[]","components":[{"name":"tokenId","type":"uint256","internalType":"uint256"},{"name":"tickLower","type":"int24","internalType":"int24"},{"name":"tickUpper","type":"int24","internalType":"int24"},{"name":"poolId","type":"bytes25","internalType":"bytes25"}]}],"stateMutability":"nonpayable"}],"bytecode":{"object":"0x60c060405234801561000f575f80fd5b5060405161063438038061063483398101604081905261002e9161005c565b6001600160a01b039182166080521660a052610094565b6001600160a01b0381168114610059575f80fd5b50565b5f806040838503121561006d575f80fd5b825161007881610045565b602084015190925061008981610045565b809150509250929050565b60805160a0516105796100bb5f395f6102cf01525f8181606501526101ce01526105795ff3fe608060405234801561000f575f80fd5b5060043610610029575f3560e01c8063936b4dd01461002d575b5f80fd5b61004061003b366004610407565b610058565b60405161004f93929190610457565b60405180910390f35b5f806060845f036100f3577f000000000000000000000000000000000000000000000000000000000000000073ffffffffffffffffffffffffffffffffffffffff166375794a3c6040518163ffffffff1660e01b8152600401602060405180830381865afa1580156100cc573d5f803e3d5ffd5b505050506040513d601f19601f820116820180604052508101906100f091906104f9565b94505b835f0361017057604080515f808252602082019092528791879190610164565b604080516080810182525f8082526020808301829052928201819052606082015282527fffffffffffffffffffffffffffffffffffffffffffffffffffffffffffffffff9092019101816101135790505b509250925092506103fd565b5f6040519050608085026080820101604052856020820152606060408201525f60608201526101cc60405180608001604052805f81526020015f60020b81526020015f60020b81526020015f66ffffffffffffff191681525090565b7f000000000000000000000000000000000000000000000000000000000000000060015b888a10156103dd575f636352211e5f528a60205260205f6024601c865afa821691505f5190508b73ffffffffffffffffffffffffffffffffffffffff168173ffffffffffffffffffffffffffffffffffffffff161461024f57506103cb565b5f6389097a6a5f5260205f6024601c875afa831692505f5190505f610293827fffffffffffffffffffffffffffffffffffffffffffffffffff000000000000001690565b9050805c7fffffffffffffffffffffffffffffffffffffffffffffffffffffffffffffffff81016102c757505050506103cb565b80610333575f7f000000000000000000000000000000000000000000000000000000000000000090505f6386b6be7d5f52836020525f806024601c8b5afa87169650602060805f3e505f51818114600101925082845d60018303610330575050505050506103cb565b50505b606088015160808082028a01018f815297506103528460081c60020b90565b60020b60208901526103678460201c60020b90565b60020b60408901527fffffffffffffffffffffffffffffffffffffffffffffffffff0000000000000083166060808a01919091526001919091019089018190528c81106103c5578e6103b881610510565b9f505050505050506103dd565b50505050505b896103d581610510565b9a50506101f0565b806001146103e9575f80fd5b60608401518a855260808102608086010185f35b9450945094915050565b5f805f806080858703121561041a575f80fd5b843573ffffffffffffffffffffffffffffffffffffffff8116811461043d575f80fd5b966020860135965060408601359560600135945092505050565b5f60608201858352846020840152606060408401528084518083526080850191506020860192505f5b818110156104ec57835180518452602081015160020b6020850152604081015160020b60408501527fffffffffffffffffffffffffffffffffffffffffffffffffff00000000000000606082015116606085015250608083019250602084019350600181019050610480565b5090979650505050505050565b5f60208284031215610509575f80fd5b5051919050565b5f7fffffffffffffffffffffffffffffffffffffffffffffffffffffffffffffffff8203610565577f4e487b71000000000000000000000000000000000000000000000000000000005f52601160045260245ffd5b506001019056fea164736f6c634300081a000a","linkReferences":{}},"methodIdentifiers":{"getPositions(address,uint256,uint256,uint256)":"936b4dd0"},"id":203}