{"abi":[{"type":"function","name":"allowance","inputs":[{"name":"","type":"address","internalType":"address"},{"name":"","type":"address","internalType":"address"}],"outputs":[{"name":"","type":"uint256","internalType":"uint256"}],"stateMutability":"view"},{"type":"function","name":"approve","inputs":[{"name":"spender","type":"address","internalType":"address"},{"name":"amount","type":"uint256","internalType":"uint256"}],"outputs":[],"stateMutability":"nonpayable"},{"type":"function","name":"balanceOf","inputs":[{"name":"","type":"address","internalType":"address"}],"outputs":[{"name":"","type":"uint256","internalType":"uint256"}],"stateMutability":"view"},{"type":"function","name":"burn","inputs":[{"name":"from","type":"address","internalType":"address"},{"name":"amount","type":"uint256","internalType":"uint256"}],"outputs":[],"stateMutability":"nonpayable"},{"type":"function","name":"decimals","inputs":[],"outputs":[{"name":"","type":"uint8","internalType":"uint8"}],"stateMutability":"pure"},{"type":"function","name":"mint","inputs":[{"name":"to","type":"address","internalType":"address"},{"name":"amount","type":"uint256","internalType":"uint256"}],"outputs":[],"stateMutability":"nonpayable"},{"type":"function","name":"name","inputs":[],"outputs":[{"name":"","type":"string","internalType":"string"}],"stateMutability":"view"},{"type":"function","name":"setAllowance","inputs":[{"name":"from","type":"address","internalType":"address"},{"name":"to","type":"address","internalType":"address"},{"name":"amount","type":"uint256","internalType":"uint256"}],"outputs":[],"stateMutability":"nonpayable"},{"type":"function","name":"setMeta","inputs":[{"name":"newName","type":"string","internalType":"string"},{"name":"newSymbol","type":"string","internalType":"string"}],"outputs":[],"stateMutability":"nonpayable"},{"type":"function","name":"symbol","inputs":[],"outputs":[{"name":"","type":"string","internalType":"string"}],"stateMutability":"view"},{"type":"function","name":"totalSupply","inputs":[],"outputs":[{"name":"","type":"uint256","internalType":"uint256"}],"stateMutability":"view"},{"type":"function","name":"transfer","inputs":[{"name":"to","type":"address","internalType":"address"},{"name":"amount","type":"uint256","internalType":"uint256"}],"outputs":[{"name":"","type":"bool","internalType":"bool"}],"stateMutability":"nonpayable"},{"type":"function","name":"transferFrom","inputs":[{"name":"from","type":"address","internalType":"address"},{"name":"to","type":"address","internalType":"address"},{"name":"amount","type":"uint256","internalType":"uint256"}],"outputs":[{"name":"","type":"bool","internalType":"bool"}],"stateMutability":"nonpayable"},{"type":"event","name":"Approval","inputs":[{"name":"owner","type":"address","indexed":true,"internalType":"address"},{"name":"spender","type":"address","indexed":true,"internalType":"address"},{"name":"amount","type":"uint256","indexed":false,"internalType":"uint256"}],"anonymous":false},{"type":"event","name":"Transfer","inputs":[{"name":"from","type":"address","indexed":true,"internalType":"address"},{"name":"to","type":"address","indexed":true,"internalType":"address"},{"name":"amount","type":"uint256","indexed":false,"internalType":"uint256"}],"anonymous":false}],"bytecode":{"object":"0x60c0604052600a60809081526926b7b1b5902a37b5b2b760b11b60a05260039061002990826100fb565b506040805180820190915260038152624d434b60e81b602082015260049061005190826100fb565b5034801561005d575f80fd5b506101b5565b634e487b7160e01b5f52604160045260245ffd5b600181811c9082168061008b57607f821691505b6020821081036100a957634e487b7160e01b5f52602260045260245ffd5b50919050565b601f8211156100f657805f5260205f20601f840160051c810160208510156100d45750805b601f840160051c820191505b818110156100f3575f81556001016100e0565b50505b505050565b81516001600160401b0381111561011457610114610063565b610128816101228454610077565b846100af565b6020601f82116001811461015a575f83156101435750848201515b5f19600385901b1c1916600184901b1784556100f3565b5f84815260208120601f198516915b828110156101895787850151825560209485019460019092019101610169565b50848210156101a657868401515f19600387901b60f8161c191681555b50505050600190811b01905550565b610b97806101c25f395ff3fe608060405234801561000f575f80fd5b50600436106100da575f3560e01c80636d3c473e116100885780639dc29fac116100635780639dc29fac146101a6578063a9059cbb146101b9578063da46098c146101cc578063dd62ed3e146101df575f80fd5b80636d3c473e1461016c57806370a082311461017f57806395d89b411461019e575f80fd5b806323b872dd116100b857806323b872dd14610127578063313ce5671461014a57806340c10f1914610159575f80fd5b806306fdde03146100de578063095ea7b3146100fc57806318160ddd14610111575b5f80fd5b6100e6610209565b6040516100f391906106fc565b60405180910390f35b61010f61010a366004610777565b610299565b005b6101195f5481565b6040519081526020016100f3565b61013a61013536600461079f565b610305565b60405190151581526020016100f3565b604051601281526020016100f3565b61010f610167366004610777565b61047d565b61010f61017a3660046108ce565b610515565b61011961018d366004610933565b60016020525f908152604090205481565b6100e6610533565b61010f6101b4366004610777565b610542565b61013a6101c7366004610777565b6105da565b61010f6101da36600461079f565b61068f565b6101196101ed366004610953565b600260209081525f928352604080842090915290825290205481565b60606003805461021890610984565b80601f016020809104026020016040519081016040528092919081815260200182805461024490610984565b801561028f5780601f106102665761010080835404028352916020019161028f565b820191905f5260205f20905b81548152906001019060200180831161027257829003601f168201915b5050505050905090565b335f81815260026020908152604080832073ffffffffffffffffffffffffffffffffffffffff871680855290835292819020859055518481529192917f8c5be1e5ebec7d5bd14f71427d1e84f3dd0314c0f7b2291e5b200ac8c7c3b92591015b60405180910390a35050565b73ffffffffffffffffffffffffffffffffffffffff83165f9081526002602090815260408083203384529091528120547fffffffffffffffffffffffffffffffffffffffffffffffffffffffffffffffff8114610397576103668382610a02565b73ffffffffffffffffffffffffffffffffffffffff86165f9081526002602090815260408083203384529091529020555b73ffffffffffffffffffffffffffffffffffffffff85165f90815260016020526040812080548592906103cb908490610a02565b909155505073ffffffffffffffffffffffffffffffffffffffff84165f9081526001602052604081208054859290610404908490610a15565b925050819055508373ffffffffffffffffffffffffffffffffffffffff168573ffffffffffffffffffffffffffffffffffffffff167fddf252ad1be2c89b69c2b068fc378daa952ba7f163c4a11628f55a4df523b3ef8560405161046a91815260200190565b60405180910390a3506001949350505050565b805f8082825461048d9190610a15565b909155505073ffffffffffffffffffffffffffffffffffffffff82165f90815260016020526040812080548392906104c6908490610a15565b909155505060405181815273ffffffffffffffffffffffffffffffffffffffff8316905f907fddf252ad1be2c89b69c2b068fc378daa952ba7f163c4a11628f55a4df523b3ef906020016102f9565b60036105218382610a73565b50600461052e8282610a73565b505050565b60606004805461021890610984565b805f808282546105529190610a02565b909155505073ffffffffffffffffffffffffffffffffffffffff82165f908152600160205260408120805483929061058b908490610a02565b90915550506040518181525f9073ffffffffffffffffffffffffffffffffffffffff8416907fddf252ad1be2c89b69c2b068fc378daa952ba7f163c4a11628f55a4df523b3ef906020016102f9565b335f908152600160205260408120805483919083906105fa908490610a02565b909155505073ffffffffffffffffffffffffffffffffffffffff83165f9081526001602052604081208054849290610633908490610a15565b909155505060405182815273ffffffffffffffffffffffffffffffffffffffff84169033907fddf252ad1be2c89b69c2b068fc378daa952ba7f163c4a11628f55a4df523b3ef9060200160405180910390a35060015b92915050565b73ffffffffffffffffffffffffffffffffffffffff8381165f8181526002602090815260408083209487168084529482529182902085905590518481527f8c5be1e5ebec7d5bd14f71427d1e84f3dd0314c0f7b2291e5b200ac8c7c3b925910160405180910390a3505050565b602081525f82518060208401528060208501604085015e5f6040828501015260407fffffffffffffffffffffffffffffffffffffffffffffffffffffffffffffffe0601f83011684010191505092915050565b803573ffffffffffffffffffffffffffffffffffffffff81168114610772575f80fd5b919050565b5f8060408385031215610788575f80fd5b6107918361074f565b946020939093013593505050565b5f805f606084860312156107b1575f80fd5b6107ba8461074f565b92506107c86020850161074f565b929592945050506040919091013590565b7f4e487b71000000000000000000000000000000000000000000000000000000005f52604160045260245ffd5b5f82601f830112610815575f80fd5b813567ffffffffffffffff81111561082f5761082f6107d9565b6040517fffffffffffffffffffffffffffffffffffffffffffffffffffffffffffffffe0603f7fffffffffffffffffffffffffffffffffffffffffffffffffffffffffffffffe0601f8501160116810181811067ffffffffffffffff8211171561089b5761089b6107d9565b6040528181528382016020018510156108b2575f80fd5b816020850160208301375f918101602001919091529392505050565b5f80604083850312156108df575f80fd5b823567ffffffffffffffff8111156108f5575f80fd5b61090185828601610806565b925050602083013567ffffffffffffffff81111561091d575f80fd5b61092985828601610806565b9150509250929050565b5f60208284031215610943575f80fd5b61094c8261074f565b9392505050565b5f8060408385031215610964575f80fd5b61096d8361074f565b915061097b6020840161074f565b90509250929050565b600181811c9082168061099857607f821691505b6020821081036109cf577f4e487b71000000000000000000000000000000000000000000000000000000005f52602260045260245ffd5b50919050565b7f4e487b71000000000000000000000000000000000000000000000000000000005f52601160045260245ffd5b81810381811115610689576106896109d5565b80820180821115610689576106896109d5565b601f82111561052e57805f5260205f20601f840160051c81016020851015610a4d5750805b601f840160051c820191505b81811015610a6c575f8155600101610a59565b5050505050565b815167ffffffffffffffff811115610a8d57610a8d6107d9565b610aa181610a9b8454610984565b84610a28565b6020601f821160018114610af2575f8315610abc5750848201515b7fffffffffffffffffffffffffffffffffffffffffffffffffffffffffffffffff600385901b1c1916600184901b178455610a6c565b5f848152602081207fffffffffffffffffffffffffffffffffffffffffffffffffffffffffffffffe08516915b82811015610b3f5787850151825560209485019460019092019101610b1f565b5084821015610b7b57868401517fffffffffffffffffffffffffffffffffffffffffffffffffffffffffffffffff600387901b60f8161c191681555b50505050600190811b0190555056fea164736f6c634300081a000a","linkReferences":{}},"methodIdentifiers":{"allowance(address,address)":"dd62ed3e","approve(address,uint256)":"095ea7b3","balanceOf(address)":"70a08231","burn(address,uint256)":"9dc29fac","decimals()":"313ce567","mint(address,uint256)":"40c10f19","name()":"06fdde03","setAllowance(address,address,uint256)":"da46098c","setMeta(string,string)":"6d3c473e","symbol()":"95d89b41","totalSupply()":"18160ddd","transfer(address,uint256)":"a9059cbb","transferFrom(address,address,uint256)":"23b872dd"},"id":211}