{"abi":[{"type":"constructor","inputs":[{"name":"angstrom","type":"address","internalType":"contract IAngstromAuth"},{"name":"initialOwner","type":"address","internalType":"address"},{"name":"_fastOwner","type":"address","internalType":"address"}],"stateMutability":"nonpayable"},{"type":"function","name":"ANGSTROM","inputs":[],"outputs":[{"name":"","type":"address","internalType":"contract IAngstromAuth"}],"stateMutability":"view"},{"type":"function","name":"acceptNewController","inputs":[],"outputs":[],"stateMutability":"nonpayable"},{"type":"function","name":"addNode","inputs":[{"name":"node","type":"address","internalType":"address"}],"outputs":[],"stateMutability":"nonpayable"},{"type":"function","name":"batchUpdatePools","inputs":[{"name":"updates","type":"tuple[]","internalType":"struct ControllerV1.PoolUpdate[]","components":[{"name":"assetA","type":"address","internalType":"address"},{"name":"assetB","type":"address","internalType":"address"},{"name":"bundleFee","type":"uint24","internalType":"uint24"},{"name":"unlockedFee","type":"uint24","internalType":"uint24"},{"name":"protocolUnlockedFee","type":"uint24","internalType":"uint24"}]}],"outputs":[],"stateMutability":"nonpayable"},{"type":"function","name":"cancelOwnershipHandover","inputs":[],"outputs":[],"stateMutability":"payable"},{"type":"function","name":"collect_unlock_swap_fees","inputs":[{"name":"to","type":"address","internalType":"address"},{"name":"packed_assets","type":"bytes","internalType":"bytes"}],"outputs":[],"stateMutability":"nonpayable"},{"type":"function","name":"completeOwnershipHandover","inputs":[{"name":"pendingOwner","type":"address","internalType":"address"}],"outputs":[],"stateMutability":"payable"},{"type":"function","name":"configurePool","inputs":[{"name":"asset0","type":"address","internalType":"address"},{"name":"asset1","type":"address","internalType":"address"},{"name":"tickSpacing","type":"uint16","internalType":"uint16"},{"name":"bundleFee","type":"uint24","internalType":"uint24"},{"name":"unlockedFee","type":"uint24","internalType":"uint24"},{"name":"protocolUnlockedFee","type":"uint24","internalType":"uint24"}],"outputs":[],"stateMutability":"nonpayable"},{"type":"function","name":"distributeFees","inputs":[{"name":"assets","type":"tuple[]","internalType":"struct Asset[]","components":[{"name":"addr","type":"address","internalType":"address"},{"name":"total","type":"uint256","internalType":"uint256"},{"name":"dists","type":"tuple[]","internalType":"struct Distribution[]","components":[{"name":"to","type":"address","internalType":"address"},{"name":"amount","type":"uint256","internalType":"uint256"}]}]}],"outputs":[],"stateMutability":"nonpayable"},{"type":"function","name":"fastOwner","inputs":[],"outputs":[{"name":"","type":"address","internalType":"address"}],"stateMutability":"view"},{"type":"function","name":"getPoolByIndex","inputs":[{"name":"index","type":"uint256","internalType":"uint256"}],"outputs":[{"name":"asset0","type":"address","internalType":"address"},{"name":"asset1","type":"address","internalType":"address"}],"stateMutability":"view"},{"type":"function","name":"getPoolByKey","inputs":[{"name":"key","type":"bytes27","internalType":"StoreKey"}],"outputs":[{"name":"asset0","type":"address","internalType":"address"},{"name":"asset1","type":"address","internalType":"address"}],"stateMutability":"view"},{"type":"function","name":"initStartNodes","inputs":[{"name":"initNodes","type":"address[]","internalType":"address[]"}],"outputs":[],"stateMutability":"nonpayable"},{"type":"function","name":"keyExists","inputs":[{"name":"key","type":"bytes27","internalType":"StoreKey"}],"outputs":[{"name":"","type":"bool","internalType":"bool"}],"stateMutability":"view"},{"type":"function","name":"nodes","inputs":[],"outputs":[{"name":"","type":"address[]","internalType":"address[]"}],"stateMutability":"view"},{"type":"function","name":"owner","inputs":[],"outputs":[{"name":"result","type":"address","internalType":"address"}],"stateMutability":"view"},{"type":"function","name":"ownershipHandoverExpiresAt","inputs":[{"name":"pendingOwner","type":"address","internalType":"address"}],"outputs":[{"name":"result","type":"uint256","internalType":"uint256"}],"stateMutability":"view"},{"type":"function","name":"removeNode","inputs":[{"name":"node","type":"address","internalType":"address"}],"outputs":[],"stateMutability":"nonpayable"},{"type":"function","name":"removePool","inputs":[{"name":"asset0","type":"address","internalType":"address"},{"name":"asset1","type":"address","internalType":"address"}],"outputs":[],"stateMutability":"nonpayable"},{"type":"function","name":"renounceOwnership","inputs":[],"outputs":[],"stateMutability":"payable"},{"type":"function","name":"requestOwnershipHandover","inputs":[],"outputs":[],"stateMutability":"payable"},{"type":"function","name":"setController","inputs":[],"outputs":[{"name":"","type":"address","internalType":"address"}],"stateMutability":"view"},{"type":"function","name":"setNewController","inputs":[{"name":"newController","type":"address","internalType":"address"}],"outputs":[],"stateMutability":"nonpayable"},{"type":"function","name":"totalNodes","inputs":[],"outputs":[{"name":"","type":"uint256","internalType":"uint256"}],"stateMutability":"view"},{"type":"function","name":"totalPools","inputs":[],"outputs":[{"name":"","type":"uint256","internalType":"uint256"}],"stateMutability":"view"},{"type":"function","name":"transferOwnership","inputs":[{"name":"","type":"address","internalType":"address"}],"outputs":[],"stateMutability":"payable"},{"type":"event","name":"NewControllerAccepted","inputs":[{"name":"newController","type":"address","indexed":true,"internalType":"address"}],"anonymous":false},{"type":"event","name":"NewControllerSet","inputs":[{"name":"newController","type":"address","indexed":true,"internalType":"address"}],"anonymous":false},{"type":"event","name":"NodeAdded","inputs":[{"name":"node","type":"address","indexed":true,"internalType":"address"}],"anonymous":false},{"type":"event","name":"NodeRemoved","inputs":[{"name":"node","type":"address","indexed":true,"internalType":"address"}],"anonymous":false},{"type":"event","name":"OpaqueBatchPoolUpdate","inputs":[],"anonymous":false},{"type":"event","name":"OwnershipHandoverCanceled","inputs":[{"name":"pendingOwner","type":"address","indexed":true,"internalType":"address"}],"anonymous":false},{"type":"event","name":"OwnershipHandoverRequested","inputs":[{"name":"pendingOwner","type":"address","indexed":true,"internalType":"address"}],"anonymous":false},{"type":"event","name":"OwnershipTransferred","inputs":[{"name":"oldOwner","type":"address","indexed":true,"internalType":"address"},{"name":"newOwner","type":"address","indexed":true,"internalType":"address"}],"anonymous":false},{"type":"event","name":"PoolConfigured","inputs":[{"name":"asset0","type":"address","indexed":true,"internalType":"address"},{"name":"asset1","type":"address","indexed":true,"internalType":"address"},{"name":"tickSpacing","type":"uint16","indexed":false,"internalType":"uint16"},{"name":"bundleFee","type":"uint24","indexed":false,"internalType":"uint24"},{"name":"unlockedFee","type":"uint24","indexed":false,"internalType":"uint24"},{"name":"protocolUnlockedFee","type":"uint24","indexed":false,"internalType":"uint24"}],"anonymous":false},{"type":"event","name":"PoolRemoved","inputs":[{"name":"asset0","type":"address","indexed":true,"internalType":"address"},{"name":"asset1","type":"address","indexed":true,"internalType":"address"},{"name":"tickSpacing","type":"int24","indexed":false,"internalType":"int24"},{"name":"feeInE6","type":"uint24","indexed":false,"internalType":"uint24"}],"anonymous":false},{"type":"error","name":"AlreadyInitialized","inputs":[]},{"type":"error","name":"AlreadyNode","inputs":[]},{"type":"error","name":"FeeAboveMax","inputs":[]},{"type":"error","name":"FunctionDisabled","inputs":[]},{"type":"error","name":"KeyNotFound","inputs":[]},{"type":"error","name":"NewOwnerIsZeroAddress","inputs":[]},{"type":"error","name":"NoEntry","inputs":[]},{"type":"error","name":"NoHandoverRequest","inputs":[]},{"type":"error","name":"NonexistentPool","inputs":[{"name":"asset0","type":"address","internalType":"address"},{"name":"asset1","type":"address","internalType":"address"}]},{"type":"error","name":"NotNode","inputs":[]},{"type":"error","name":"NotNodeOrOwner","inputs":[]},{"type":"error","name":"NotSetController","inputs":[]},{"type":"error","name":"TotalNotDistributed","inputs":[]},{"type":"error","name":"Unauthorized","inputs":[]}],"bytecode":{"object":"0x60c060405234801561000f575f80fd5b50604051612a91380380612a9183398101604081905261002e916100a1565b61003782610051565b6001600160a01b0392831660805290911660a052506100eb565b6001600160a01b0316638b78c6d819819055805f7f8be0079c531659141344cd1fd0a4f28419497f9722a3daafe3b4186f6b6457e08180a35b50565b6001600160a01b038116811461008a575f80fd5b5f805f606084860312156100b3575f80fd5b83516100be8161008d565b60208501519093506100cf8161008d565b60408501519092506100e08161008d565b809150509250925092565b60805160a0516129386101595f395f8181610279015281816119790152611ab401525f81816104e10152818161082d015281816108e601528181610b0c01528181610e4a01528181610ec4015281816114490152818161159a015281816118fa0152611d8c01526129385ff3fe608060405260043610610199575f3560e01c8063744b92e2116100dc578063ab3c7e5211610087578063f2fde38b11610062578063f2fde38b146104bd578063f8098f38146104d0578063f86ad98a14610503578063fee81cf414610517575f80fd5b8063ab3c7e5214610477578063b2b99ec91461048b578063f04e283e146104aa575f80fd5b80638da5cb5b116100b75780638da5cb5b146104035780639592d424146104365780639d95f1cc14610458575f80fd5b8063744b92e21461039a57806377e2bf8a146103b95780638b2704ec146103d8575f80fd5b80634d2bf47c116101475780635c1b182d116101225780635c1b182d146103065780635db82fa0146103255780636ce0c4b514610346578063715018a614610392575f80fd5b80634d2bf47c146102c057806354d1f13d146102df57806359baef40146102e7575f80fd5b806329adecf61161017757806329adecf6146101e557806333830e481461024957806343a9a71f14610268575f80fd5b8063138714651461019d578063182e6f39146101be57806325692962146101dd575b5f80fd5b3480156101a8575f80fd5b506101bc6101b73660046122b2565b610548565b005b3480156101c9575f80fd5b506101bc6101d836600461232a565b61088e565b6101bc610a7a565b3480156101f0575f80fd5b506102346101ff36600461239b565b7fffffffffffffffffffffffffffffffffffffffffffffffffffffff0000000000165f90815260036020526040902054151590565b60405190151581526020015b60405180910390f35b348015610254575f80fd5b506101bc6102633660046123e1565b610ac7565b348015610273575f80fd5b5061029b7f000000000000000000000000000000000000000000000000000000000000000081565b60405173ffffffffffffffffffffffffffffffffffffffff9091168152602001610240565b3480156102cb575f80fd5b506101bc6102da36600461245f565b610b77565b6101bc610f2e565b3480156102f2575f80fd5b506101bc6103013660046124c0565b610f67565b348015610311575f80fd5b506101bc610320366004612506565b610fdb565b348015610330575f80fd5b506103396110dc565b60405161024091906125ef565b348015610351575f80fd5b50610365610360366004612647565b6110ed565b6040805173ffffffffffffffffffffffffffffffffffffffff938416815292909116602083015201610240565b6101bc61113d565b3480156103a5575f80fd5b506101bc6103b436600461265e565b61116f565b3480156103c4575f80fd5b506103656103d336600461239b565b6115fc565b3480156103e3575f80fd5b505f5461029b9073ffffffffffffffffffffffffffffffffffffffff1681565b34801561040e575f80fd5b507fffffffffffffffffffffffffffffffffffffffffffffffffffffffff748739275461029b565b348015610441575f80fd5b5061044a6116c1565b604051908152602001610240565b348015610463575f80fd5b506101bc6104723660046124c0565b6116cc565b348015610482575f80fd5b5060025461044a565b348015610496575f80fd5b506101bc6104a53660046124c0565b611761565b6101bc6104b83660046124c0565b6117f3565b6101bc6104cb3660046124c0565b61113d565b3480156104db575f80fd5b5061029b7f000000000000000000000000000000000000000000000000000000000000000081565b34801561050e575f80fd5b506101bc61182d565b348015610522575f80fd5b5061044a6105313660046124c0565b63389a75e1600c9081525f91909152602090205490565b610550611962565b6127108362ffffff161115610591576040517f76a3f95d00000000000000000000000000000000000000000000000000000000815260040160405180910390fd5b6127108262ffffff1611156105d2576040517f76a3f95d00000000000000000000000000000000000000000000000000000000815260040160405180910390fd5b8473ffffffffffffffffffffffffffffffffffffffff168673ffffffffffffffffffffffffffffffffffffffff16111561060a579394935b5f86815260208690526040812060281b7fffffffffffffffffffffffffffffffffffffffffffffffffffffff000000000081165f9081526003602052604081205491925081900361074d575060408051808201825273ffffffffffffffffffffffffffffffffffffffff808a1682528881166020808401918252600280546001810182555f82815295519082027f405787fa12a823e0f2b7631cc41b3ba8828b3321ca811111fa75cd3aa3bb5ace810180549287167fffffffffffffffffffffffff000000000000000000000000000000000000000093841617905593517f405787fa12a823e0f2b7631cc41b3ba8828b3321ca811111fa75cd3aa3bb5acf909401805494909516931692909217909255547fffffffffffffffffffffffffffffffffffffffffffffffffffffff00000000008516835260039091529190208190555b6040805161ffff8816815262ffffff87811660208301528681168284015285166060820152905173ffffffffffffffffffffffffffffffffffffffff89811692908b16917ff325a037d71efc98bc41dc5257edefd43a1d1162e206373e53af271a7a3224e99181900360800190a36040517f1387146500000000000000000000000000000000000000000000000000000000815273ffffffffffffffffffffffffffffffffffffffff8981166004830152888116602483015261ffff8816604483015262ffffff80881660648401528087166084840152851660a48301527f0000000000000000000000000000000000000000000000000000000000000000169063138714659060c4015f604051808303815f87803b15801561086e575f80fd5b505af1158015610880573d5f803e3d5ffd5b505050505050505050505050565b610896611a13565b805f5b81811015610a7457368484838181106108b4576108b461268f565b90506020028101906108c691906126bc565b90506020810180359073ffffffffffffffffffffffffffffffffffffffff7f0000000000000000000000000000000000000000000000000000000000000000169063d9e17f989061091790856124c0565b6040517fffffffff0000000000000000000000000000000000000000000000000000000060e084901b16815273ffffffffffffffffffffffffffffffffffffffff9091166004820152602481018490526044015f604051808303815f87803b158015610981575f80fd5b505af1158015610993573d5f803e3d5ffd5b505050505f5b6109a660408401846126f8565b9050811015610a3157366109bd60408501856126f8565b838181106109cd576109cd61268f565b604002919091019150610a1890506109e860208301836124c0565b602080840135906109fb908801886124c0565b73ffffffffffffffffffffffffffffffffffffffff169190611a4a565b610a26602082013584612763565b925050600101610999565b508015610a6a576040517fb21c63eb00000000000000000000000000000000000000000000000000000000815260040160405180910390fd5b5050600101610899565b50505050565b5f6202a30067ffffffffffffffff164201905063389a75e1600c52335f52806020600c2055337fdbf36a107da19e49527a7176a1babf963b4b0ff8cde35ee35d6cd8f1f9ac7e1d5f80a250565b610acf611962565b6040517f33830e4800000000000000000000000000000000000000000000000000000000815273ffffffffffffffffffffffffffffffffffffffff7f000000000000000000000000000000000000000000000000000000000000000016906333830e4890610b45908690869086906004016127a1565b5f604051808303815f87803b158015610b5c575f80fd5b505af1158015610b6e573d5f803e3d5ffd5b50505050505050565b610b7f611a9d565b5f8167ffffffffffffffff811115610b9957610b996124d9565b604051908082528060200260200182016040528015610c0f57816020015b6040805160a0810182525f808252602080830182905292820181905260608201819052608082015282527fffffffffffffffffffffffffffffffffffffffffffffffffffffffffffffffff909201910181610bb75790505b5090505f5b82811015610e1b5736848483818110610c2f57610c2f61268f565b905060a002019050612710816040016020810190610c4d919061280a565b62ffffff161115610c8a576040517f76a3f95d00000000000000000000000000000000000000000000000000000000815260040160405180910390fd5b612710610c9d608083016060840161280a565b62ffffff161115610cda576040517f76a3f95d00000000000000000000000000000000000000000000000000000000815260040160405180910390fd5b5f80610ce960208401846124c0565b610cf960408501602086016124c0565b915091508173ffffffffffffffffffffffffffffffffffffffff168173ffffffffffffffffffffffffffffffffffffffff161115610d3357905b5f82815260208281526040808320815160a0810183527fffffffffffffffffffffffffffffffffffffffffffffffffffffff000000000060289290921b918216855260039093529220548190610d8b90600190612763565b81526020018264ffffffffff19168152602001856040016020810190610db1919061280a565b62ffffff168152602001610dcb608087016060880161280a565b62ffffff168152602001610de560a087016080880161280a565b62ffffff16815250868681518110610dff57610dff61268f565b6020026020010181905250505050508080600101915050610c14565b506040517fc93f1add41c218fa7665c10617033f441f8e3c16fa372796265445d7a1497c23905f90a15f610e847f000000000000000000000000000000000000000000000000000000000000000073ffffffffffffffffffffffffffffffffffffffff16611aee565b6040517f53b41c5500000000000000000000000000000000000000000000000000000000815290915073ffffffffffffffffffffffffffffffffffffffff7f000000000000000000000000000000000000000000000000000000000000000016906353b41c5590610efb9084908690600401612823565b5f604051808303815f87803b158015610f12575f80fd5b505af1158015610f24573d5f803e3d5ffd5b5050505050505050565b63389a75e1600c52335f525f6020600c2055337ffa7b8eab7da67f412cc9575ed43464468f9bfbae89d1675917346ca6d8fe3c925f80a2565b610f6f611a13565b5f80547fffffffffffffffffffffffff00000000000000000000000000000000000000001673ffffffffffffffffffffffffffffffffffffffff8316908117825560405190917fcbcf384e26c16836177d0b6d8ce70541a86ff3091deecaf5b6e0fa5564c7825091a250565b60045460ff1615610fe95750565b600480547fffffffffffffffffffffffffffffffffffffffffffffffffffffffffffffff001660011790555f5b81518110156110d8575f8282815181106110325761103261268f565b60200260200101519050611050816001611b8990919063ffffffff16565b611086576040517fef6f523600000000000000000000000000000000000000000000000000000000815260040160405180910390fd5b61108f81611d0d565b60405173ffffffffffffffffffffffffffffffffffffffff8216907fb25d03aaf308d7291709be1ea28b800463cf3a9a4c4a5555d7333a964c1dfebd905f90a250600101611016565b5050565b60606110e86001611df4565b905090565b5f805f600284815481106111035761110361268f565b5f9182526020909120600290910201805460019091015473ffffffffffffffffffffffffffffffffffffffff918216969116945092505050565b6040517fbf24148800000000000000000000000000000000000000000000000000000000815260040160405180910390fd5b611177611a13565b8073ffffffffffffffffffffffffffffffffffffffff168273ffffffffffffffffffffffffffffffffffffffff1611156111ad57905b5f82815260208290526040812060281b7fffffffffffffffffffffffffffffffffffffffffffffffffffffff000000000081165f9081526003602052604081205491925081900361124e576040517f02f51b3100000000000000000000000000000000000000000000000000000000815273ffffffffffffffffffffffffffffffffffffffff80861660048301528416602482015260440160405180910390fd5b6002547fffffffffffffffffffffffffffffffffffffffffffffffffffffffffffffffff82019080831015611399575f600260018303815481106112945761129461268f565b5f9182526020808320604080518082018252600294909402909101805473ffffffffffffffffffffffffffffffffffffffff90811680865260019092015416848401819052908552909152822090925060281b905081600285815481106112fd576112fd61268f565b5f91825260208083208451600290930201805473ffffffffffffffffffffffffffffffffffffffff9384167fffffffffffffffffffffffff000000000000000000000000000000000000000091821617825594820151600190910180549190931694169390931790557fffffffffffffffffffffffffffffffffffffffffffffffffffffff000000000090921682526003905260409020849055505b7fffffffffffffffffffffffffffffffffffffffffffffffffffffff000000000084165f9081526003602052604081205560028054806113db576113db6128e7565b5f8281526020812060027fffffffffffffffffffffffffffffffffffffffffffffffffffffffffffffffff9093019283020180547fffffffffffffffffffffffff000000000000000000000000000000000000000090811682556001919091018054909116905591556114837f000000000000000000000000000000000000000000000000000000000000000073ffffffffffffffffffffffffffffffffffffffff16611aee565b90505f806114a873ffffffffffffffffffffffffffffffffffffffff84168887611ec8565b915091508773ffffffffffffffffffffffffffffffffffffffff168973ffffffffffffffffffffffffffffffffffffffff167f79f612570217c00df128c1b828dd6b321b3a70ae4c61b7a97fe4a71fc19df9ba848460405161151e92919060029290920b825262ffffff16602082015260400190565b60405180910390a36040517fdd4d4cf60000000000000000000000000000000000000000000000000000000081527fffffffffffffffffffffffffffffffffffffffffffffffffffffff00000000008816600482015273ffffffffffffffffffffffffffffffffffffffff8481166024830152604482018790527f0000000000000000000000000000000000000000000000000000000000000000169063dd4d4cf6906064015f604051808303815f87803b1580156115db575f80fd5b505af11580156115ed573d5f803e3d5ffd5b50505050505050505050505050565b7fffffffffffffffffffffffffffffffffffffffffffffffffffffff000000000081165f908152600360205260408120548190808203611668576040517f5f3f479c00000000000000000000000000000000000000000000000000000000815260040160405180910390fd5b5f6002611676600184612763565b815481106116865761168661268f565b5f9182526020909120600290910201805460019091015473ffffffffffffffffffffffffffffffffffffffff91821697911695509350505050565b5f6110e86001611f3f565b6116d4611a13565b6116df600182611b89565b611715576040517fef6f523600000000000000000000000000000000000000000000000000000000815260040160405180910390fd5b60405173ffffffffffffffffffffffffffffffffffffffff8216907fb25d03aaf308d7291709be1ea28b800463cf3a9a4c4a5555d7333a964c1dfebd905f90a261175e81611d0d565b50565b611769611962565b611774600182611f90565b6117aa576040517f5cd26b6800000000000000000000000000000000000000000000000000000000815260040160405180910390fd5b60405173ffffffffffffffffffffffffffffffffffffffff8216907fcfc24166db4bb677e857cacabd1541fb2b30645021b27c5130419589b84db52b905f90a261175e81611d0d565b6117fb611a13565b63389a75e1600c52805f526020600c20805442111561182157636f5e88185f526004601cfd5b5f905561175e81612104565b5f5473ffffffffffffffffffffffffffffffffffffffff16331461187d576040517fb0634a7600000000000000000000000000000000000000000000000000000000815260040160405180910390fd5b5f80547fffffffffffffffffffffffff000000000000000000000000000000000000000016815560405133917fab258afbe9ebb963a1baeadbb7265f37c95f67b6ca707ab7f56268bcb7d291c891a26040517f92eefe9b0000000000000000000000000000000000000000000000000000000081523360048201527f000000000000000000000000000000000000000000000000000000000000000073ffffffffffffffffffffffffffffffffffffffff16906392eefe9b906024015f604051808303815f87803b158015611950575f80fd5b505af1158015610a74573d5f803e3d5ffd5b73ffffffffffffffffffffffffffffffffffffffff7f00000000000000000000000000000000000000000000000000000000000000001633036119a157565b7fffffffffffffffffffffffffffffffffffffffffffffffffffffffff748739275473ffffffffffffffffffffffffffffffffffffffff1633036119e157565b6040517f29ab190d00000000000000000000000000000000000000000000000000000000815260040160405180910390fd5b7fffffffffffffffffffffffffffffffffffffffffffffffffffffffff74873927543314611a48576382b429005f526004601cfd5b565b81601452806034526fa9059cbb0000000000000000000000005f5260205f604460105f875af18060015f511416611a9357803d853b151710611a93576390b8ec185f526004601cfd5b505f603452505050565b73ffffffffffffffffffffffffffffffffffffffff7f0000000000000000000000000000000000000000000000000000000000000000163303611adc57565b611ae7600133612169565b156119a157565b6040517f7cf98081000000000000000000000000000000000000000000000000000000008152600360048201525f90819073ffffffffffffffffffffffffffffffffffffffff841690637cf9808190602401602060405180830381865afa158015611b5b573d5f803e3d5ffd5b505050506040513d601f19601f82011682018060405250810190611b7f9190612914565b60401c9392505050565b63978aab926004525f8281526024812073ffffffffffffffffffffffffffffffffffffffff92909216917fffffffffffffffffffffffffffffffffffffffffffffff04498025ad2b4047418301611be75763f5a267f15f526004601cfd5b82611bf95768fbb67fda52d4bfb8bf92505b80546bffffffffffffffffffffffff81168260205280611cc0578160601c80611c2c578560601b84556001945050611d04565b858103611c395750611d04565b600184015460601c80611c5a578660601b6001860155600195505050611d04565b868103611c68575050611d04565b600285015460601c80611c8a578760601b600287015560019650505050611d04565b878103611c9957505050611d04565b5f928352604080842060019055918352818320600290558252902060039055506007908117905b845f5260405f208054611d0257600191821c808301825591945081611cee578560601b600317845550611d04565b8560601b8285015582600201845550611d04565b505b50505092915050565b6040805160018082528183019092525f916020808301908036833701905050905081815f81518110611d4157611d4161268f565b73ffffffffffffffffffffffffffffffffffffffff92831660209182029290920101526040517fd6cffd1e0000000000000000000000000000000000000000000000000000000081527f00000000000000000000000000000000000000000000000000000000000000009091169063d6cffd1e90611dc39084906004016125ef565b5f604051808303815f87803b158015611dda575f80fd5b505af1158015611dec573d5f803e3d5ffd5b505050505050565b63978aab926004525f818152602481206060915068fbb67fda52d4bfb8bf81548060a01b60a01c6040519450846020018260601c9250838314158302815281611e82578215611e7d57600191508185015460601c92508215611e7d578284141590920260208301525060028381015460601c918215611e7d576003915083831415830260408201525b611eb2565b600191821c915b82811015611eb0578581015460601c858114158102600583901b8401529350600101611e89565b505b8186528160051b81016040525050505050919050565b5f8080611eec73ffffffffffffffffffffffffffffffffffffffff8716868661223a565b905080611f25576040517f2f659e4400000000000000000000000000000000000000000000000000000000815260040160405180910390fd5b61ffff601882901c169662ffffff90911695509350505050565b63978aab926004525f8181526024812080548060a01b60a01c8060011c9350808260601c1517611f8857600193508383015415611f8857600293508383015415611f8857600393505b505050919050565b63978aab926004525f8281526024812073ffffffffffffffffffffffffffffffffffffffff92909216917fffffffffffffffffffffffffffffffffffffffffffffff04498025ad2b4047418301611fee5763f5a267f15f526004601cfd5b826120005768fbb67fda52d4bfb8bf92505b80546bffffffffffffffffffffffff81168061207f5760019350848260601c0361203d5760018301805484556002840180549091555f9055611d04565b84600184015460601c0361205e5760028301805460018501555f9055611d04565b84600284015460601c03612077575f6002840155611d04565b5f9350611d04565b82602052845f5260405f20805480612098575050611d04565b60018360011c0392508260018203146120c8578285015460601c8060601b60018303870155805f52508060405f20555b5083547fffffffffffffffffffffffffffffffffffffffff00000000000000000000000016600192831b1782179093555f909255509392505050565b7fffffffffffffffffffffffffffffffffffffffffffffffffffffffff74873927805473ffffffffffffffffffffffffffffffffffffffff9092169182907f8be0079c531659141344cd1fd0a4f28419497f9722a3daafe3b4186f6b6457e05f80a355565b63978aab926004525f8281526024812073ffffffffffffffffffffffffffffffffffffffff92909216917fffffffffffffffffffffffffffffffffffffffffffffff04498025ad2b40474183016121c75763f5a267f15f526004601cfd5b826121d95768fbb67fda52d4bfb8bf92505b80546bffffffffffffffffffffffff81166122215760019250838160601c031561223257600182015460601c841461223257600282015460601c8414612232575f9250612232565b81602052835f5260405f2054151592505b505092915050565b5f6020826020026001015f863c50505f517fffffffffffffffffffffffffffffffffffffffffffffffffffffff000000000081169190911402919050565b803573ffffffffffffffffffffffffffffffffffffffff8116811461229b575f80fd5b919050565b803562ffffff8116811461229b575f80fd5b5f805f805f8060c087890312156122c7575f80fd5b6122d087612278565b95506122de60208801612278565b9450604087013561ffff811681146122f4575f80fd5b9350612302606088016122a0565b9250612310608088016122a0565b915061231e60a088016122a0565b90509295509295509295565b5f806020838503121561233b575f80fd5b823567ffffffffffffffff811115612351575f80fd5b8301601f81018513612361575f80fd5b803567ffffffffffffffff811115612377575f80fd5b8560208260051b840101111561238b575f80fd5b6020919091019590945092505050565b5f602082840312156123ab575f80fd5b81357fffffffffffffffffffffffffffffffffffffffffffffffffffffff0000000000811681146123da575f80fd5b9392505050565b5f805f604084860312156123f3575f80fd5b6123fc84612278565b9250602084013567ffffffffffffffff811115612417575f80fd5b8401601f81018613612427575f80fd5b803567ffffffffffffffff81111561243d575f80fd5b86602082840101111561244e575f80fd5b939660209190910195509293505050565b5f8060208385031215612470575f80fd5b823567ffffffffffffffff811115612486575f80fd5b8301601f81018513612496575f80fd5b803567ffffffffffffffff8111156124ac575f80fd5b85602060a08302840101111561238b575f80fd5b5f602082840312156124d0575f80fd5b6123da82612278565b7f4e487b71000000000000000000000000000000000000000000000000000000005f52604160045260245ffd5b5f60208284031215612516575f80fd5b813567ffffffffffffffff81111561252c575f80fd5b8201601f8101841361253c575f80fd5b803567ffffffffffffffff811115612556576125566124d9565b8060051b6040517fffffffffffffffffffffffffffffffffffffffffffffffffffffffffffffffe0603f830116810181811067ffffffffffffffff821117156125a1576125a16124d9565b6040529182526020818401810192908101878411156125be575f80fd5b6020850194505b838510156125e4576125d685612278565b8152602094850194016125c5565b509695505050505050565b602080825282518282018190525f918401906040840190835b8181101561263c57835173ffffffffffffffffffffffffffffffffffffffff16835260209384019390920191600101612608565b509095945050505050565b5f60208284031215612657575f80fd5b5035919050565b5f806040838503121561266f575f80fd5b61267883612278565b915061268660208401612278565b90509250929050565b7f4e487b71000000000000000000000000000000000000000000000000000000005f52603260045260245ffd5b5f82357fffffffffffffffffffffffffffffffffffffffffffffffffffffffffffffffa18336030181126126ee575f80fd5b9190910192915050565b5f8083357fffffffffffffffffffffffffffffffffffffffffffffffffffffffffffffffe184360301811261272b575f80fd5b83018035915067ffffffffffffffff821115612745575f80fd5b6020019150600681901b360382131561275c575f80fd5b9250929050565b8181038181111561279b577f4e487b71000000000000000000000000000000000000000000000000000000005f52601160045260245ffd5b92915050565b73ffffffffffffffffffffffffffffffffffffffff8416815260406020820152816040820152818360608301375f818301606090810191909152601f9092017fffffffffffffffffffffffffffffffffffffffffffffffffffffffffffffffe016010192915050565b5f6020828403121561281a575f80fd5b6123da826122a0565b5f6040820173ffffffffffffffffffffffffffffffffffffffff85168352604060208401528084518083526060850191506020860192505f5b818110156128db578351805184527fffffffffffffffffffffffffffffffffffffffffffffffffffffff0000000000602082015116602085015262ffffff604082015116604085015262ffffff606082015116606085015262ffffff60808201511660808501525060a08301925060208401935060018101905061285c565b50909695505050505050565b7f4e487b71000000000000000000000000000000000000000000000000000000005f52603160045260245ffd5b5f60208284031215612924575f80fd5b505191905056fea164736f6c634300081a000a","linkReferences":{}},"methodIdentifiers":{"ANGSTROM()":"f8098f38","acceptNewController()":"f86ad98a","addNode(address)":"9d95f1cc","batchUpdatePools((address,address,uint24,uint24,uint24)[])":"4d2bf47c","cancelOwnershipHandover()":"54d1f13d","collect_unlock_swap_fees(address,bytes)":"33830e48","completeOwnershipHandover(address)":"f04e283e","configurePool(address,address,uint16,uint24,uint24,uint24)":"13871465","distributeFees((address,uint256,(address,uint256)[])[])":"182e6f39","fastOwner()":"43a9a71f","getPoolByIndex(uint256)":"6ce0c4b5","getPoolByKey(bytes27)":"77e2bf8a","initStartNodes(address[])":"5c1b182d","keyExists(bytes27)":"29adecf6","nodes()":"5db82fa0","owner()":"8da5cb5b","ownershipHandoverExpiresAt(address)":"fee81cf4","removeNode(address)":"b2b99ec9","removePool(address,address)":"744b92e2","renounceOwnership()":"715018a6","requestOwnershipHandover()":"25692962","setController()":"8b2704ec","setNewController(address)":"59baef40","totalNodes()":"9592d424","totalPools()":"ab3c7e52","transferOwnership(address)":"f2fde38b"},"id":175}